{
  "contractName": "Imoveis",
  "abi": [
    {
      "inputs": [],
      "stateMutability": "nonpayable",
      "type": "constructor"
    },
    {
      "anonymous": false,
      "inputs": [
        {
          "indexed": true,
          "internalType": "address",
          "name": "owner",
          "type": "address"
        },
        {
          "indexed": true,
          "internalType": "address",
          "name": "approved",
          "type": "address"
        },
        {
          "indexed": true,
          "internalType": "uint256",
          "name": "tokenId",
          "type": "uint256"
        }
      ],
      "name": "Approval",
      "type": "event"
    },
    {
      "anonymous": false,
      "inputs": [
        {
          "indexed": true,
          "internalType": "address",
          "name": "owner",
          "type": "address"
        },
        {
          "indexed": true,
          "internalType": "address",
          "name": "operator",
          "type": "address"
        },
        {
          "indexed": false,
          "internalType": "bool",
          "name": "approved",
          "type": "bool"
        }
      ],
      "name": "ApprovalForAll",
      "type": "event"
    },
    {
      "anonymous": false,
      "inputs": [
        {
          "indexed": true,
          "internalType": "address",
          "name": "from",
          "type": "address"
        },
        {
          "indexed": true,
          "internalType": "address",
          "name": "to",
          "type": "address"
        },
        {
          "indexed": true,
          "internalType": "uint256",
          "name": "tokenId",
          "type": "uint256"
        }
      ],
      "name": "Transfer",
      "type": "event"
    },
    {
      "inputs": [
        {
          "internalType": "address",
          "name": "to",
          "type": "address"
        },
        {
          "internalType": "uint256",
          "name": "tokenId",
          "type": "uint256"
        }
      ],
      "name": "approve",
      "outputs": [],
      "stateMutability": "nonpayable",
      "type": "function"
    },
    {
      "inputs": [
        {
          "internalType": "address",
          "name": "owner",
          "type": "address"
        }
      ],
      "name": "balanceOf",
      "outputs": [
        {
          "internalType": "uint256",
          "name": "",
          "type": "uint256"
        }
      ],
      "stateMutability": "view",
      "type": "function",
      "constant": true
    },
    {
      "inputs": [
        {
          "internalType": "uint256",
          "name": "tokenId",
          "type": "uint256"
        }
      ],
      "name": "getApproved",
      "outputs": [
        {
          "internalType": "address",
          "name": "",
          "type": "address"
        }
      ],
      "stateMutability": "view",
      "type": "function",
      "constant": true
    },
    {
      "inputs": [
        {
          "internalType": "address",
          "name": "owner",
          "type": "address"
        },
        {
          "internalType": "address",
          "name": "operator",
          "type": "address"
        }
      ],
      "name": "isApprovedForAll",
      "outputs": [
        {
          "internalType": "bool",
          "name": "",
          "type": "bool"
        }
      ],
      "stateMutability": "view",
      "type": "function",
      "constant": true
    },
    {
      "inputs": [],
      "name": "name",
      "outputs": [
        {
          "internalType": "string",
          "name": "",
          "type": "string"
        }
      ],
      "stateMutability": "view",
      "type": "function",
      "constant": true
    },
    {
      "inputs": [
        {
          "internalType": "uint256",
          "name": "tokenId",
          "type": "uint256"
        }
      ],
      "name": "ownerOf",
      "outputs": [
        {
          "internalType": "address",
          "name": "",
          "type": "address"
        }
      ],
      "stateMutability": "view",
      "type": "function",
      "constant": true
    },
    {
      "inputs": [
        {
          "internalType": "address",
          "name": "from",
          "type": "address"
        },
        {
          "internalType": "address",
          "name": "to",
          "type": "address"
        },
        {
          "internalType": "uint256",
          "name": "tokenId",
          "type": "uint256"
        }
      ],
      "name": "safeTransferFrom",
      "outputs": [],
      "stateMutability": "nonpayable",
      "type": "function"
    },
    {
      "inputs": [
        {
          "internalType": "address",
          "name": "from",
          "type": "address"
        },
        {
          "internalType": "address",
          "name": "to",
          "type": "address"
        },
        {
          "internalType": "uint256",
          "name": "tokenId",
          "type": "uint256"
        },
        {
          "internalType": "bytes",
          "name": "data",
          "type": "bytes"
        }
      ],
      "name": "safeTransferFrom",
      "outputs": [],
      "stateMutability": "nonpayable",
      "type": "function"
    },
    {
      "inputs": [
        {
          "internalType": "address",
          "name": "operator",
          "type": "address"
        },
        {
          "internalType": "bool",
          "name": "approved",
          "type": "bool"
        }
      ],
      "name": "setApprovalForAll",
      "outputs": [],
      "stateMutability": "nonpayable",
      "type": "function"
    },
    {
      "inputs": [
        {
          "internalType": "bytes4",
          "name": "interfaceId",
          "type": "bytes4"
        }
      ],
      "name": "supportsInterface",
      "outputs": [
        {
          "internalType": "bool",
          "name": "",
          "type": "bool"
        }
      ],
      "stateMutability": "view",
      "type": "function",
      "constant": true
    },
    {
      "inputs": [],
      "name": "symbol",
      "outputs": [
        {
          "internalType": "string",
          "name": "",
          "type": "string"
        }
      ],
      "stateMutability": "view",
      "type": "function",
      "constant": true
    },
    {
      "inputs": [
        {
          "internalType": "uint256",
          "name": "tokenId",
          "type": "uint256"
        }
      ],
      "name": "tokenURI",
      "outputs": [
        {
          "internalType": "string",
          "name": "",
          "type": "string"
        }
      ],
      "stateMutability": "view",
      "type": "function",
      "constant": true
    },
    {
      "inputs": [
        {
          "internalType": "address",
          "name": "from",
          "type": "address"
        },
        {
          "internalType": "address",
          "name": "to",
          "type": "address"
        },
        {
          "internalType": "uint256",
          "name": "tokenId",
          "type": "uint256"
        }
      ],
      "name": "transferFrom",
      "outputs": [],
      "stateMutability": "nonpayable",
      "type": "function"
    },
    {
      "inputs": [
        {
          "internalType": "address",
          "name": "proprietario",
          "type": "address"
        },
        {
          "internalType": "string",
          "name": "tokenURI",
          "type": "string"
        }
      ],
      "name": "criarToken",
      "outputs": [
        {
          "internalType": "uint256",
          "name": "",
          "type": "uint256"
        }
      ],
      "stateMutability": "nonpayable",
      "type": "function"
    },
    {
      "inputs": [],
      "name": "getCurrentId",
      "outputs": [
        {
          "internalType": "uint256",
          "name": "",
          "type": "uint256"
        }
      ],
      "stateMutability": "view",
      "type": "function",
      "constant": true
    },
    {
      "inputs": [
        {
          "internalType": "address",
          "name": "from",
          "type": "address"
        },
        {
          "internalType": "address",
          "name": "to",
          "type": "address"
        },
        {
          "internalType": "uint256",
          "name": "id",
          "type": "uint256"
        },
        {
          "internalType": "string",
          "name": "tokenURI",
          "type": "string"
        }
      ],
      "name": "transferirToken",
      "outputs": [
        {
          "internalType": "uint256",
          "name": "",
          "type": "uint256"
        }
      ],
      "stateMutability": "nonpayable",
      "type": "function"
    }
  ],
  "bytecode": "0x60806040523480156200001157600080fd5b506040518060400160405280600781526020017f496d6f76656973000000000000000000000000000000000000000000000000008152506040518060400160405280600381526020017f494d56000000000000000000000000000000000000000000000000000000000081525081600090816200008f919062000324565b508060019081620000a1919062000324565b5050506200040b565b600081519050919050565b7f4e487b7100000000000000000000000000000000000000000000000000000000600052604160045260246000fd5b7f4e487b7100000000000000000000000000000000000000000000000000000000600052602260045260246000fd5b600060028204905060018216806200012c57607f821691505b602082108103620001425762000141620000e4565b5b50919050565b60008190508160005260206000209050919050565b60006020601f8301049050919050565b600082821b905092915050565b600060088302620001ac7fffffffffffffffffffffffffffffffffffffffffffffffffffffffffffffffff826200016d565b620001b886836200016d565b95508019841693508086168417925050509392505050565b6000819050919050565b6000819050919050565b600062000205620001ff620001f984620001d0565b620001da565b620001d0565b9050919050565b6000819050919050565b6200022183620001e4565b6200023962000230826200020c565b8484546200017a565b825550505050565b600090565b6200025062000241565b6200025d81848462000216565b505050565b5b8181101562000285576200027960008262000246565b60018101905062000263565b5050565b601f821115620002d4576200029e8162000148565b620002a9846200015d565b81016020851015620002b9578190505b620002d1620002c8856200015d565b83018262000262565b50505b505050565b600082821c905092915050565b6000620002f960001984600802620002d9565b1980831691505092915050565b6000620003148383620002e6565b9150826002028217905092915050565b6200032f82620000aa565b67ffffffffffffffff8111156200034b576200034a620000b5565b5b62000357825462000113565b6200036482828562000289565b600060209050601f8311600181146200039c576000841562000387578287015190505b62000393858262000306565b86555062000403565b601f198416620003ac8662000148565b60005b82811015620003d657848901518255600182019150602085019450602081019050620003af565b86831015620003f65784890151620003f2601f891682620002e6565b8355505b6001600288020188555050505b505050505050565b612b55806200041b6000396000f3fe608060405234801561001057600080fd5b50600436106101005760003560e01c806370a0823111610097578063ad5e87ca11610066578063ad5e87ca146102bf578063b88d4fde146102ef578063c87b56dd1461030b578063e985e9c51461033b57610100565b806370a0823114610225578063813acd5b1461025557806395d89b4114610285578063a22cb465146102a357610100565b806323b872dd116100d357806323b872dd1461019f57806342842e0e146101bb5780636352211e146101d75780636c1438621461020757610100565b806301ffc9a71461010557806306fdde0314610135578063081812fc14610153578063095ea7b314610183575b600080fd5b61011f600480360381019061011a9190611851565b61036b565b60405161012c9190611899565b60405180910390f35b61013d61044d565b60405161014a9190611944565b60405180910390f35b61016d6004803603810190610168919061199c565b6104df565b60405161017a9190611a0a565b60405180910390f35b61019d60048036038101906101989190611a51565b610525565b005b6101b960048036038101906101b49190611a91565b61063c565b005b6101d560048036038101906101d09190611a91565b61069c565b005b6101f160048036038101906101ec919061199c565b6106bc565b6040516101fe9190611a0a565b60405180910390f35b61020f61076d565b60405161021c9190611af3565b60405180910390f35b61023f600480360381019061023a9190611b0e565b610783565b60405161024c9190611af3565b60405180910390f35b61026f600480360381019061026a9190611c70565b61083a565b60405161027c9190611af3565b60405180910390f35b61028d610871565b60405161029a9190611944565b60405180910390f35b6102bd60048036038101906102b89190611cf8565b610903565b005b6102d960048036038101906102d49190611d38565b610919565b6040516102e69190611af3565b60405180910390f35b61030960048036038101906103049190611e5c565b61093b565b005b6103256004803603810190610320919061199c565b61099d565b6040516103329190611944565b60405180910390f35b61035560048036038101906103509190611edf565b610aaf565b6040516103629190611899565b60405180910390f35b60007f80ac58cd000000000000000000000000000000000000000000000000000000007bffffffffffffffffffffffffffffffffffffffffffffffffffffffff1916827bffffffffffffffffffffffffffffffffffffffffffffffffffffffff1916148061043657507f5b5e139f000000000000000000000000000000000000000000000000000000007bffffffffffffffffffffffffffffffffffffffffffffffffffffffff1916827bffffffffffffffffffffffffffffffffffffffffffffffffffffffff1916145b80610446575061044582610b43565b5b9050919050565b60606000805461045c90611f4e565b80601f016020809104026020016040519081016040528092919081815260200182805461048890611f4e565b80156104d55780601f106104aa576101008083540402835291602001916104d5565b820191906000526020600020905b8154815290600101906020018083116104b857829003601f168201915b5050505050905090565b60006104ea82610bad565b6004600083815260200190815260200160002060009054906101000a900473ffffffffffffffffffffffffffffffffffffffff169050919050565b6000610530826106bc565b90508073ffffffffffffffffffffffffffffffffffffffff168373ffffffffffffffffffffffffffffffffffffffff16036105a0576040517f08c379a000000000000000000000000000000000000000000000000000000000815260040161059790611ff1565b60405180910390fd5b8073ffffffffffffffffffffffffffffffffffffffff166105bf610bf8565b73ffffffffffffffffffffffffffffffffffffffff1614806105ee57506105ed816105e8610bf8565b610aaf565b5b61062d576040517f08c379a000000000000000000000000000000000000000000000000000000000815260040161062490612083565b60405180910390fd5b6106378383610c00565b505050565b61064d610647610bf8565b82610cb9565b61068c576040517f08c379a000000000000000000000000000000000000000000000000000000000815260040161068390612115565b60405180910390fd5b610697838383610d4e565b505050565b6106b78383836040518060200160405280600081525061093b565b505050565b6000806002600084815260200190815260200160002060009054906101000a900473ffffffffffffffffffffffffffffffffffffffff169050600073ffffffffffffffffffffffffffffffffffffffff168173ffffffffffffffffffffffffffffffffffffffff1603610764576040517f08c379a000000000000000000000000000000000000000000000000000000000815260040161075b90612181565b60405180910390fd5b80915050919050565b60008061077a6007610fb4565b90508091505090565b60008073ffffffffffffffffffffffffffffffffffffffff168273ffffffffffffffffffffffffffffffffffffffff16036107f3576040517f08c379a00000000000000000000000000000000000000000000000000000000081526004016107ea90612213565b60405180910390fd5b600360008373ffffffffffffffffffffffffffffffffffffffff1673ffffffffffffffffffffffffffffffffffffffff168152602001908152602001600020549050919050565b6000806108476007610fb4565b90506108538482610fc2565b61085d818461119b565b6108676007611208565b8091505092915050565b60606001805461088090611f4e565b80601f01602080910402602001604051908101604052809291908181526020018280546108ac90611f4e565b80156108f95780601f106108ce576101008083540402835291602001916108f9565b820191906000526020600020905b8154815290600101906020018083116108dc57829003601f168201915b5050505050905090565b61091561090e610bf8565b838361121e565b5050565b6000610926858585610d4e565b610930838361119b565b829050949350505050565b61094c610946610bf8565b83610cb9565b61098b576040517f08c379a000000000000000000000000000000000000000000000000000000000815260040161098290612115565b60405180910390fd5b6109978484848461138a565b50505050565b60606109a882610bad565b60006006600084815260200190815260200160002080546109c890611f4e565b80601f01602080910402602001604051908101604052809291908181526020018280546109f490611f4e565b8015610a415780601f10610a1657610100808354040283529160200191610a41565b820191906000526020600020905b815481529060010190602001808311610a2457829003601f168201915b505050505090506000610a526113e6565b90506000815103610a67578192505050610aaa565b600082511115610a9c578082604051602001610a8492919061226f565b60405160208183030381529060405292505050610aaa565b610aa5846113fd565b925050505b919050565b6000600560008473ffffffffffffffffffffffffffffffffffffffff1673ffffffffffffffffffffffffffffffffffffffff16815260200190815260200160002060008373ffffffffffffffffffffffffffffffffffffffff1673ffffffffffffffffffffffffffffffffffffffff16815260200190815260200160002060009054906101000a900460ff16905092915050565b60007f01ffc9a7000000000000000000000000000000000000000000000000000000007bffffffffffffffffffffffffffffffffffffffffffffffffffffffff1916827bffffffffffffffffffffffffffffffffffffffffffffffffffffffff1916149050919050565b610bb681611465565b610bf5576040517f08c379a0000000000000000000000000000000000000000000000000000000008152600401610bec90612181565b60405180910390fd5b50565b600033905090565b816004600083815260200190815260200160002060006101000a81548173ffffffffffffffffffffffffffffffffffffffff021916908373ffffffffffffffffffffffffffffffffffffffff160217905550808273ffffffffffffffffffffffffffffffffffffffff16610c73836106bc565b73ffffffffffffffffffffffffffffffffffffffff167f8c5be1e5ebec7d5bd14f71427d1e84f3dd0314c0f7b2291e5b200ac8c7c3b92560405160405180910390a45050565b600080610cc5836106bc565b90508073ffffffffffffffffffffffffffffffffffffffff168473ffffffffffffffffffffffffffffffffffffffff161480610d075750610d068185610aaf565b5b80610d4557508373ffffffffffffffffffffffffffffffffffffffff16610d2d846104df565b73ffffffffffffffffffffffffffffffffffffffff16145b91505092915050565b8273ffffffffffffffffffffffffffffffffffffffff16610d6e826106bc565b73ffffffffffffffffffffffffffffffffffffffff1614610dc4576040517f08c379a0000000000000000000000000000000000000000000000000000000008152600401610dbb90612305565b60405180910390fd5b600073ffffffffffffffffffffffffffffffffffffffff168273ffffffffffffffffffffffffffffffffffffffff1603610e33576040517f08c379a0000000000000000000000000000000000000000000000000000000008152600401610e2a90612397565b60405180910390fd5b610e3e8383836114d1565b610e49600082610c00565b6001600360008573ffffffffffffffffffffffffffffffffffffffff1673ffffffffffffffffffffffffffffffffffffffff1681526020019081526020016000206000828254610e9991906123e6565b925050819055506001600360008473ffffffffffffffffffffffffffffffffffffffff1673ffffffffffffffffffffffffffffffffffffffff1681526020019081526020016000206000828254610ef0919061241a565b92505081905550816002600083815260200190815260200160002060006101000a81548173ffffffffffffffffffffffffffffffffffffffff021916908373ffffffffffffffffffffffffffffffffffffffff160217905550808273ffffffffffffffffffffffffffffffffffffffff168473ffffffffffffffffffffffffffffffffffffffff167fddf252ad1be2c89b69c2b068fc378daa952ba7f163c4a11628f55a4df523b3ef60405160405180910390a4610faf8383836114d6565b505050565b600081600001549050919050565b600073ffffffffffffffffffffffffffffffffffffffff168273ffffffffffffffffffffffffffffffffffffffff1603611031576040517f08c379a00000000000000000000000000000000000000000000000000000000081526004016110289061249a565b60405180910390fd5b61103a81611465565b1561107a576040517f08c379a000000000000000000000000000000000000000000000000000000000815260040161107190612506565b60405180910390fd5b611086600083836114d1565b6001600360008473ffffffffffffffffffffffffffffffffffffffff1673ffffffffffffffffffffffffffffffffffffffff16815260200190815260200160002060008282546110d6919061241a565b92505081905550816002600083815260200190815260200160002060006101000a81548173ffffffffffffffffffffffffffffffffffffffff021916908373ffffffffffffffffffffffffffffffffffffffff160217905550808273ffffffffffffffffffffffffffffffffffffffff16600073ffffffffffffffffffffffffffffffffffffffff167fddf252ad1be2c89b69c2b068fc378daa952ba7f163c4a11628f55a4df523b3ef60405160405180910390a4611197600083836114d6565b5050565b6111a482611465565b6111e3576040517f08c379a00000000000000000000000000000000000000000000000000000000081526004016111da90612598565b60405180910390fd5b806006600084815260200190815260200160002090816112039190612764565b505050565b6001816000016000828254019250508190555050565b8173ffffffffffffffffffffffffffffffffffffffff168373ffffffffffffffffffffffffffffffffffffffff160361128c576040517f08c379a000000000000000000000000000000000000000000000000000000000815260040161128390612882565b60405180910390fd5b80600560008573ffffffffffffffffffffffffffffffffffffffff1673ffffffffffffffffffffffffffffffffffffffff16815260200190815260200160002060008473ffffffffffffffffffffffffffffffffffffffff1673ffffffffffffffffffffffffffffffffffffffff16815260200190815260200160002060006101000a81548160ff0219169083151502179055508173ffffffffffffffffffffffffffffffffffffffff168373ffffffffffffffffffffffffffffffffffffffff167f17307eab39ab6107e8899845ad3d59bd9653f200f220920489ca2b5937696c318360405161137d9190611899565b60405180910390a3505050565b611395848484610d4e565b6113a1848484846114db565b6113e0576040517f08c379a00000000000000000000000000000000000000000000000000000000081526004016113d790612914565b60405180910390fd5b50505050565b606060405180602001604052806000815250905090565b606061140882610bad565b60006114126113e6565b90506000815111611432576040518060200160405280600081525061145d565b8061143c84611662565b60405160200161144d92919061226f565b6040516020818303038152906040525b915050919050565b60008073ffffffffffffffffffffffffffffffffffffffff166002600084815260200190815260200160002060009054906101000a900473ffffffffffffffffffffffffffffffffffffffff1673ffffffffffffffffffffffffffffffffffffffff1614159050919050565b505050565b505050565b60006114fc8473ffffffffffffffffffffffffffffffffffffffff166117c2565b15611655578373ffffffffffffffffffffffffffffffffffffffff1663150b7a02611525610bf8565b8786866040518563ffffffff1660e01b81526004016115479493929190612989565b6020604051808303816000875af192505050801561158357506040513d601f19601f8201168201806040525081019061158091906129ea565b60015b611605573d80600081146115b3576040519150601f19603f3d011682016040523d82523d6000602084013e6115b8565b606091505b5060008151036115fd576040517f08c379a00000000000000000000000000000000000000000000000000000000081526004016115f490612914565b60405180910390fd5b805181602001fd5b63150b7a0260e01b7bffffffffffffffffffffffffffffffffffffffffffffffffffffffff1916817bffffffffffffffffffffffffffffffffffffffffffffffffffffffff19161491505061165a565b600190505b949350505050565b6060600082036116a9576040518060400160405280600181526020017f300000000000000000000000000000000000000000000000000000000000000081525090506117bd565b600082905060005b600082146116db5780806116c490612a17565b915050600a826116d49190612a8e565b91506116b1565b60008167ffffffffffffffff8111156116f7576116f6611b45565b5b6040519080825280601f01601f1916602001820160405280156117295781602001600182028036833780820191505090505b5090505b600085146117b65760018261174291906123e6565b9150600a856117519190612abf565b603061175d919061241a565b60f81b81838151811061177357611772612af0565b5b60200101907effffffffffffffffffffffffffffffffffffffffffffffffffffffffffffff1916908160001a905350600a856117af9190612a8e565b945061172d565b8093505050505b919050565b6000808273ffffffffffffffffffffffffffffffffffffffff163b119050919050565b6000604051905090565b600080fd5b600080fd5b60007fffffffff0000000000000000000000000000000000000000000000000000000082169050919050565b61182e816117f9565b811461183957600080fd5b50565b60008135905061184b81611825565b92915050565b600060208284031215611867576118666117ef565b5b60006118758482850161183c565b91505092915050565b60008115159050919050565b6118938161187e565b82525050565b60006020820190506118ae600083018461188a565b92915050565b600081519050919050565b600082825260208201905092915050565b60005b838110156118ee5780820151818401526020810190506118d3565b60008484015250505050565b6000601f19601f8301169050919050565b6000611916826118b4565b61192081856118bf565b93506119308185602086016118d0565b611939816118fa565b840191505092915050565b6000602082019050818103600083015261195e818461190b565b905092915050565b6000819050919050565b61197981611966565b811461198457600080fd5b50565b60008135905061199681611970565b92915050565b6000602082840312156119b2576119b16117ef565b5b60006119c084828501611987565b91505092915050565b600073ffffffffffffffffffffffffffffffffffffffff82169050919050565b60006119f4826119c9565b9050919050565b611a04816119e9565b82525050565b6000602082019050611a1f60008301846119fb565b92915050565b611a2e816119e9565b8114611a3957600080fd5b50565b600081359050611a4b81611a25565b92915050565b60008060408385031215611a6857611a676117ef565b5b6000611a7685828601611a3c565b9250506020611a8785828601611987565b9150509250929050565b600080600060608486031215611aaa57611aa96117ef565b5b6000611ab886828701611a3c565b9350506020611ac986828701611a3c565b9250506040611ada86828701611987565b9150509250925092565b611aed81611966565b82525050565b6000602082019050611b086000830184611ae4565b92915050565b600060208284031215611b2457611b236117ef565b5b6000611b3284828501611a3c565b91505092915050565b600080fd5b600080fd5b7f4e487b7100000000000000000000000000000000000000000000000000000000600052604160045260246000fd5b611b7d826118fa565b810181811067ffffffffffffffff82111715611b9c57611b9b611b45565b5b80604052505050565b6000611baf6117e5565b9050611bbb8282611b74565b919050565b600067ffffffffffffffff821115611bdb57611bda611b45565b5b611be4826118fa565b9050602081019050919050565b82818337600083830152505050565b6000611c13611c0e84611bc0565b611ba5565b905082815260208101848484011115611c2f57611c2e611b40565b5b611c3a848285611bf1565b509392505050565b600082601f830112611c5757611c56611b3b565b5b8135611c67848260208601611c00565b91505092915050565b60008060408385031215611c8757611c866117ef565b5b6000611c9585828601611a3c565b925050602083013567ffffffffffffffff811115611cb657611cb56117f4565b5b611cc285828601611c42565b9150509250929050565b611cd58161187e565b8114611ce057600080fd5b50565b600081359050611cf281611ccc565b92915050565b60008060408385031215611d0f57611d0e6117ef565b5b6000611d1d85828601611a3c565b9250506020611d2e85828601611ce3565b9150509250929050565b60008060008060808587031215611d5257611d516117ef565b5b6000611d6087828801611a3c565b9450506020611d7187828801611a3c565b9350506040611d8287828801611987565b925050606085013567ffffffffffffffff811115611da357611da26117f4565b5b611daf87828801611c42565b91505092959194509250565b600067ffffffffffffffff821115611dd657611dd5611b45565b5b611ddf826118fa565b9050602081019050919050565b6000611dff611dfa84611dbb565b611ba5565b905082815260208101848484011115611e1b57611e1a611b40565b5b611e26848285611bf1565b509392505050565b600082601f830112611e4357611e42611b3b565b5b8135611e53848260208601611dec565b91505092915050565b60008060008060808587031215611e7657611e756117ef565b5b6000611e8487828801611a3c565b9450506020611e9587828801611a3c565b9350506040611ea687828801611987565b925050606085013567ffffffffffffffff811115611ec757611ec66117f4565b5b611ed387828801611e2e565b91505092959194509250565b60008060408385031215611ef657611ef56117ef565b5b6000611f0485828601611a3c565b9250506020611f1585828601611a3c565b9150509250929050565b7f4e487b7100000000000000000000000000000000000000000000000000000000600052602260045260246000fd5b60006002820490506001821680611f6657607f821691505b602082108103611f7957611f78611f1f565b5b50919050565b7f4552433732313a20617070726f76616c20746f2063757272656e74206f776e6560008201527f7200000000000000000000000000000000000000000000000000000000000000602082015250565b6000611fdb6021836118bf565b9150611fe682611f7f565b604082019050919050565b6000602082019050818103600083015261200a81611fce565b9050919050565b7f4552433732313a20617070726f76652063616c6c6572206973206e6f7420746f60008201527f6b656e206f776e6572206e6f7220617070726f76656420666f7220616c6c0000602082015250565b600061206d603e836118bf565b915061207882612011565b604082019050919050565b6000602082019050818103600083015261209c81612060565b9050919050565b7f4552433732313a2063616c6c6572206973206e6f7420746f6b656e206f776e6560008201527f72206e6f7220617070726f766564000000000000000000000000000000000000602082015250565b60006120ff602e836118bf565b915061210a826120a3565b604082019050919050565b6000602082019050818103600083015261212e816120f2565b9050919050565b7f4552433732313a20696e76616c696420746f6b656e2049440000000000000000600082015250565b600061216b6018836118bf565b915061217682612135565b602082019050919050565b6000602082019050818103600083015261219a8161215e565b9050919050565b7f4552433732313a2061646472657373207a65726f206973206e6f74206120766160008201527f6c6964206f776e65720000000000000000000000000000000000000000000000602082015250565b60006121fd6029836118bf565b9150612208826121a1565b604082019050919050565b6000602082019050818103600083015261222c816121f0565b9050919050565b600081905092915050565b6000612249826118b4565b6122538185612233565b93506122638185602086016118d0565b80840191505092915050565b600061227b828561223e565b9150612287828461223e565b91508190509392505050565b7f4552433732313a207472616e736665722066726f6d20696e636f72726563742060008201527f6f776e6572000000000000000000000000000000000000000000000000000000602082015250565b60006122ef6025836118bf565b91506122fa82612293565b604082019050919050565b6000602082019050818103600083015261231e816122e2565b9050919050565b7f4552433732313a207472616e7366657220746f20746865207a65726f2061646460008201527f7265737300000000000000000000000000000000000000000000000000000000602082015250565b60006123816024836118bf565b915061238c82612325565b604082019050919050565b600060208201905081810360008301526123b081612374565b9050919050565b7f4e487b7100000000000000000000000000000000000000000000000000000000600052601160045260246000fd5b60006123f182611966565b91506123fc83611966565b9250828203905081811115612414576124136123b7565b5b92915050565b600061242582611966565b915061243083611966565b9250828201905080821115612448576124476123b7565b5b92915050565b7f4552433732313a206d696e7420746f20746865207a65726f2061646472657373600082015250565b60006124846020836118bf565b915061248f8261244e565b602082019050919050565b600060208201905081810360008301526124b381612477565b9050919050565b7f4552433732313a20746f6b656e20616c7265616479206d696e74656400000000600082015250565b60006124f0601c836118bf565b91506124fb826124ba565b602082019050919050565b6000602082019050818103600083015261251f816124e3565b9050919050565b7f45524337323155524953746f726167653a2055524920736574206f66206e6f6e60008201527f6578697374656e7420746f6b656e000000000000000000000000000000000000602082015250565b6000612582602e836118bf565b915061258d82612526565b604082019050919050565b600060208201905081810360008301526125b181612575565b9050919050565b60008190508160005260206000209050919050565b60006020601f8301049050919050565b600082821b905092915050565b60006008830261261a7fffffffffffffffffffffffffffffffffffffffffffffffffffffffffffffffff826125dd565b61262486836125dd565b95508019841693508086168417925050509392505050565b6000819050919050565b600061266161265c61265784611966565b61263c565b611966565b9050919050565b6000819050919050565b61267b83612646565b61268f61268782612668565b8484546125ea565b825550505050565b600090565b6126a4612697565b6126af818484612672565b505050565b5b818110156126d3576126c860008261269c565b6001810190506126b5565b5050565b601f821115612718576126e9816125b8565b6126f2846125cd565b81016020851015612701578190505b61271561270d856125cd565b8301826126b4565b50505b505050565b600082821c905092915050565b600061273b6000198460080261271d565b1980831691505092915050565b6000612754838361272a565b9150826002028217905092915050565b61276d826118b4565b67ffffffffffffffff81111561278657612785611b45565b5b6127908254611f4e565b61279b8282856126d7565b600060209050601f8311600181146127ce57600084156127bc578287015190505b6127c68582612748565b86555061282e565b601f1984166127dc866125b8565b60005b82811015612804578489015182556001820191506020850194506020810190506127df565b86831015612821578489015161281d601f89168261272a565b8355505b6001600288020188555050505b505050505050565b7f4552433732313a20617070726f766520746f2063616c6c657200000000000000600082015250565b600061286c6019836118bf565b915061287782612836565b602082019050919050565b6000602082019050818103600083015261289b8161285f565b9050919050565b7f4552433732313a207472616e7366657220746f206e6f6e20455243373231526560008201527f63656976657220696d706c656d656e7465720000000000000000000000000000602082015250565b60006128fe6032836118bf565b9150612909826128a2565b604082019050919050565b6000602082019050818103600083015261292d816128f1565b9050919050565b600081519050919050565b600082825260208201905092915050565b600061295b82612934565b612965818561293f565b93506129758185602086016118d0565b61297e816118fa565b840191505092915050565b600060808201905061299e60008301876119fb565b6129ab60208301866119fb565b6129b86040830185611ae4565b81810360608301526129ca8184612950565b905095945050505050565b6000815190506129e481611825565b92915050565b600060208284031215612a00576129ff6117ef565b5b6000612a0e848285016129d5565b91505092915050565b6000612a2282611966565b91507fffffffffffffffffffffffffffffffffffffffffffffffffffffffffffffffff8203612a5457612a536123b7565b5b600182019050919050565b7f4e487b7100000000000000000000000000000000000000000000000000000000600052601260045260246000fd5b6000612a9982611966565b9150612aa483611966565b925082612ab457612ab3612a5f565b5b828204905092915050565b6000612aca82611966565b9150612ad583611966565b925082612ae557612ae4612a5f565b5b828206905092915050565b7f4e487b7100000000000000000000000000000000000000000000000000000000600052603260045260246000fdfea2646970667358221220093912520aa5d4c6168eb0e041b94e803fc491a15a464e08e95f19e3df5c229264736f6c63430008110033",
  "immutableReferences": {},
  "source": "// contracts/Imoveis.sol\r\n// SPDX-License-Identifier: MIT\r\npragma solidity ^0.8.0;\r\n\r\nimport \"@openzeppelin/contracts/token/ERC721/extensions/ERC721URIStorage.sol\";\r\nimport \"@openzeppelin/contracts/utils/Counters.sol\";\r\n\r\ncontract Imoveis is ERC721URIStorage {\r\n    using Counters for Counters.Counter;\r\n    Counters.Counter private _tokenIds;\r\n\r\n    constructor() ERC721(\"Imoveis\", \"IMV\") {}\r\n\r\n    function criarToken(address proprietario, string memory tokenURI)\r\n        public\r\n        returns (uint256)\r\n    {\r\n        uint256 idImovel = _tokenIds.current();\r\n        _mint(proprietario, idImovel);\r\n        _setTokenURI(idImovel, tokenURI);\r\n\r\n        _tokenIds.increment();\r\n        return idImovel;\r\n    }\r\n\r\n    function getCurrentId() external view returns (uint256) {\r\n        uint256 id = _tokenIds.current();\r\n        return id;\r\n    }\r\n\r\n    function transferirToken(address from, address to, uint256 id, string memory tokenURI) public returns (uint256) {\r\n        _transfer(from, to, id);\r\n        _setTokenURI(id, tokenURI);\r\n        return id;\r\n    }\r\n}",
  "sourcePath": "D:\\FACULDADE\\8 periodo\\TCC 2\\prototipo\\truffle\\contracts\\Imoveis.sol",
  "compiler": {
    "name": "solc",
    "version": "0.8.17+commit.8df45f5f.Emscripten.clang"
  },
  "schemaVersion": "3.4.10",
  "updatedAt": "2022-11-26T05:01:25.775Z",
  "networkType": "ethereum",
  "devdoc": {
    "kind": "dev",
    "methods": {
      "approve(address,uint256)": {
        "details": "See {IERC721-approve}."
      },
      "balanceOf(address)": {
        "details": "See {IERC721-balanceOf}."
      },
      "getApproved(uint256)": {
        "details": "See {IERC721-getApproved}."
      },
      "isApprovedForAll(address,address)": {
        "details": "See {IERC721-isApprovedForAll}."
      },
      "name()": {
        "details": "See {IERC721Metadata-name}."
      },
      "ownerOf(uint256)": {
        "details": "See {IERC721-ownerOf}."
      },
      "safeTransferFrom(address,address,uint256)": {
        "details": "See {IERC721-safeTransferFrom}."
      },
      "safeTransferFrom(address,address,uint256,bytes)": {
        "details": "See {IERC721-safeTransferFrom}."
      },
      "setApprovalForAll(address,bool)": {
        "details": "See {IERC721-setApprovalForAll}."
      },
      "supportsInterface(bytes4)": {
        "details": "See {IERC165-supportsInterface}."
      },
      "symbol()": {
        "details": "See {IERC721Metadata-symbol}."
      },
      "tokenURI(uint256)": {
        "details": "See {IERC721Metadata-tokenURI}."
      },
      "transferFrom(address,address,uint256)": {
        "details": "See {IERC721-transferFrom}."
      }
    },
    "version": 1
  },
  "userdoc": {
    "kind": "user",
    "methods": {},
    "version": 1
  }
}